:20000000004B00203D520100FDC90110FDC90110FDC90110FDC90110FDC90110FDC90110DB
:1C002000FDC90110FDC90110FDC90110FDC90110FDC90110FDC901103BCA0110A4
:20003C0038C40D00C80000008100000032000F0100C50D00900100004000000096000501D1
:20005C00952B0D00C80000002200000032000F02000000000000000000000000000000008A
:20007C00000000000000000000000000000000000000020000000200020002000000030059
:20009C00040001000000020000000000000000000500010000000700060001000000030026
:2000BC0007000800000000000F0001000100FF0010000800000000001800080000000000CD
:2000DC002200020000000000360001000600000000000000000F0000000000000000000094
:2000FC000000000000000300FFFF00000403FFFF0000FFFF0F00E8030005401F031000016E
:20011C0001000000FF3F0F0008000E0000000000000000000300010F000009010000000042
:20013C000000000000000000000000000000000000000000000000000000000000000000A3
:20015C000000000000000000AD00000100000000FFFFFFFFFFFFFFFF9A1000000000000033
:20017C00000000000000000000000000000000000000000000000000000000000000FAFA6F
:20019C0014000000000000000000000100000101000000000000000000000000000000002C
:2001BC00000000000000000000000000000000000000000000000000000000000000000023
:2001DC0000000000000000000000000000000000000000780008020030000A0000013636DA
:2001FC0001010001020100010301000104010606080400000C0100340D01000F1004010146
:20021C00140100FF1608000020020000220100FF23010001240100FE2501000826020000AE
:20023C0028010001290100012A0200002C01000F2E0200003001000131010008320200FF16
:20025C0034010007350102FF360100003701000138010001390100FF3A01000F3C0200FFA5
:20027C003E01010F3F0100014001041F41010001420100FF43010080440800004E01000882
:20029C004F01000F50010001510100FF5201000A5301008954010001580400005C040000F4
:2002BC006004000064040000680400006C0400007004000074040000780400007C04000092
:2002DC00800100FF810100018201000183010102840100010008000000000000000008045A
:2002FC00FA000000FFFFFF000C1100000000000000001D1100000000000000002E010F0062
:20031C000000FA0000002F0100000000FA000000300100000000FF0000003101000000003B
:20033C00FF00000032010000000003000000330100000000030000003401000000000100FF
:20035C000000350200000000FFFF0000370200000000FF000000390200000000FF000000DA
:20037C003B0200000000FFFF00003D0100000000FF0000003E0100000000010000003F0169
:20039C00000000000100000040010000000007000000412000000000000000006102000034
:2003BC000000FFFF0000630800000000000000006B080000000000000000730800000000CA
:2003DC00000000007B08000000000000000083020500000058020000850100000000100004
:2003FC00000086020000000032000000880200000000320000008A02000000000A000000D5
:20041C00000105090004081000040810020402010101010902000120181A18182C34041E5D
:20043C00000C0E020B040B0A070800110F00A6AAACA4A9A9A399B19ABCB6A8313117191AF2
:20045C0021241B1D1F31313331313118191A22311C1E20313134310000000500BD00B70084
:20047C00B100BC001C00300038000800380102000000000002000000020000000A0000001E
:20049C0002000000020001000000000000000000000000000000000000000000000000003B
:2004BC00000000000E000000C003000080070000000F0000001E0000003C000000780000E7
:2004DC0000F0000000E0010000C003000080070000000F0000001E0000003C000000780004
:2004FC000000F0000000F000010171010101010111010101310101010101800100011001AB
:20051C0061013B001400630173017201620143010001130106013D01350004011201000174
:20053C0000010001000104010401330133013C0144013201360000010001650100013500A1
:20055C00810100010501820183010001660100010001080109010302710230016002110254
:20057C00700201020202020280020002100261023A00410063027302720262024302000275
:20059C00130238000002000204021202000200020002000204020402370037003C024402CE
:2005BC0000023900000200026502000235028102000205028202830200026602000200023D
:2005DC000802090203047104020460041104700402040204010402040004100461040004E3
:2005FC0014046304730472046204430400041304060400040004040412040004000400046F
:20061C0000045104640000040004000444040004000400040004650400043504810464000E
:20063C00050400048304000466040004000408040904000000A13A0100004D0B0100028FB5
:20065C00B00000001B890100018FB00000001B89010003B5E40000001B890100046F880107
:20067C0000001B8901000181880100017B880100011B890100011B890100011B89010000B7
:20069C00A1590100011B890100011B890100011B890100011B8901000281880100027B889A
:2006BC000100021B89010000A1590100021B890100021B8901000269490100021B890100D1
:2006DC0004DB890000001B8901000381880100037B880100038FB00000038FB00000031B3B
:2006FC0089010003B5E40000031B89010000A1590100031B890100031B89010004818801B7
:20071C0000047B880100048FB00000048FB00000048FB0000004DB890000041B89010004D7
:20073C001B890100046988010000A1590100010400010400003333333333333333333333CC
:20075C00333333333303010400000000000000000000000000000000FFFFFFFFFFFFFFFF7E
:20077C00FFFFFFFFFFFFFFFFFF464854657374000000000000000000000000000000000038
:20079C000000000000000000000000005907000001000000100B0000080000004A07000068
:2007BC0001123456789ABCDEF00000000000000000000000000000000300710030016000DF
:2007DC001100700031022003500480000700100061000000140063007300720062004300D9
:2007FC000000130006000000000004001200000000000000000004000400370037003C02FA
:20081C0044000000000000000000650000003500810000000500000083000000660000006F
:20083C000000080009000103710301030103010301030103220302030103000310030003B8
:20085C00000300030003000300030003420300032403060300030003040312032503230382
:20087C0025032303040304030003000300034403000300032303000365032100350381033C
:20089C0000030503000300030003000325032303080309038F0000008F0001008F00020010
:2008BC008F000300900000018F00010190000002900000038F0001048F0000058F00080480
:2008DC008F0000048A000006510000007F0001003F0004003F0002003F0001007F000200C3
:2008FC007B756E6B6E6F776E2D696E7374616E63652D6E616D657D007B656D7074792D6944
:20091C006E7374616E63652D6E616D657D00C0467B7374617469632D696E7374616E6365F9
:20093C002D6E616D657D00C000000102030410000810182004040810181C10040810181C72
:20095C000000000008000000000000002000000040000000600000000000000006000000AD
:20097C0002000000860000008200000000000080002000800040008000000080000400806D
:20099C0000080080000080800000808400208084004080840000000000000580000006803C
:2009BC0000000780000000000000000006088080070880800D2007C00E2007C01400C0803A
:2009DC000240008003008080010880801E08808009400080084000800A400080FE000000AE
:2009FC000000000000000000000100000000000000000000000000000000000000000000DA
:200A1C0000000000000000000000000000000000211501006138010015880100999F000013
:200A3C0059AF0000AB880100F54C010025D40000B18801001D0E0100381400006C0A0000FB
:200A5C0009850100198501003985010029850100516A0100A9740100F96D0100310000006C
:200A7C00001000400600000015000000FF000000000000000302FFFFB42B002020000000CE
:200A9C0001030000000000007BC80110C5BC0110D9B2011033C20110BDAD0110C1B10110B0
:200ABC006DBA011065BB01101DC00110E558010000000000FFFFFFFFFFFFFFFF000000008D
:200ADC00000000000101010100C201000300000000000000E7610000614C01000514000021
:200AFC004B4A000059500100CD7F0100578801005D88010000000000000000000000000088
:200B1C000000000000000000000000000000000000000000540A00002421002004000000F2
:200B3C000000000000000000140000006C0B00001C000000FFFFFFFF0000000000000000F6
:200B5C00000000003A01000000000000000000001C0000000000000000000000800B000097
:200B7C00000000000800000000000000DD0B0100153C0100878801008187010099AB0000B9
:200B9C0059D900000000000041D300008136010000000000000000010101000000200040D8
:200BBC000700000011000000FF0000000000000005040000C33B3D3A5D3A713AA10A8F3ACE
:200BDC000F3BB309495E850A2F3B853B241F0020A42000200C00000004000000FFFFFFFF40
:200BFC000000000000C20100FFFFFFFFE02A0020800000000100000000000000000000006F
:200C1C000000010000000100001610160E18151C0212032418580302100258010B010101FA
:200C3C000101010101010101080102010103FF7F0000000000000000000000000000000002
:200C5C000200000000000000FFFFFFFF00000000004002400B00000027000000FF000000C7
:200C7C00F00A0000202C0020FC0B0000880B00008C280020B80B0000FF000100C9480100AF
:200C9C00030000002C0A0000602700207C0A000007D50000457D0100F972010041B50110C0
:200CBC0095A6011015B8011000BE040A00BE0208FFFFFFFFFFFFFFFF3545251502030504A0
:200CDC00602B00206C0C0000FF00000000000000000000000100000006000500000000408A
:200CFC00000000000000000001000000D58801008F890100BF350100DB880100154C0100A5
:200D1C00A9220100838901000A00000030200020000000002FDA0000A789010029C1000040
:050D3C003D88010000EC
:200D4400F0B504460846ADF16C0D401E70D0401E0DD0801E00F00981401E00F0EF80401E2F
:200D640000F0E180401E00F0AD80002042E142F2010007A914F04EF842F20B0008A914F03D
:200D840049F842F206000DF1650114F043F842F207000DF1660114F03DF842F2050019A95D
:200DA40014F038F804A80EF01BFE06460DF1670142F2090014F02EF89DF86700002808BF34
:200DC400002503D0022015F0B5FE0546204607A9042216F091FF241D08A90222204616F09E
:200DE4008BFFA71C9DF864009DF865309DF866109DF8674007F8010B9DF8672007F8013BD6
:200E04002B4607F8011B610706F0070444EA916005F0030404AD40EA8410314607F8010BCD
:200E240001240095384601940BF07EFB0A309AE042F206000DF1650113F0ECFF42F20700F2
:200E44000DF1660113F0E6FF42F2040019A913F0E1FF04A80EF0C4FD05460DF1670142F214
:200E6400080013F0D7FF9DF86700002808BF002303D0012015F05EFE03469DF864009DF853
:200E8400657004F8010B9DF8666004F8017B9DF867209DF86770790704F8016B03F0030731
:200EA40005F0070646EA916004AE40EA8710294604F8010B00270096204601970BF034FB3C
:200EC400001D50E042F2150011A913F0A3FF13AF42F21600394613F09DFF15AD42F21700E2
:200EE400294613F097FF17AE42F21800314613F091FF204611A9082216F0FEFE0834082219
:200F04002046394616F0F8FE04F1080708223846294616F0F1FE082207F10800314616F035
:200F2400EBFE202066E042F214000DF1220113F071FFBDF8221002200A1258E009A8002133
:200F4400202210F025FF42F2130009A913F062FF09A817F0ADF9024609A9204616F0CCFE3C
:200F640009A817F0A5F980B244E042F20E0002A913F050FF0DF10A0142F20F0013F04AFFEA
:200F84000DF10B0142F20A0013F044FF03A942F2100013F03FFF0DF10D0142F2110013F03A
:200FA40039FF0DF10E0142F2120013F033FFBDF808009DF80B209DF80C709DF80D609DF848
:200FC4000E509DF80A1004F8010B02F00102001204F8010B07F0010042EA400206F001008C
:1C0FE40042EA800205F0070042EA4012042004F8011B22701BB0F0BD14F0D2BAF3
:201000003C000000000000000000000034100000000000000000000001000000000000004F
:1C10200000000000000000000000000001000000000000000800000000000000AB
:20103C003400000000000000000000006810000000000000000000000100000000000000E7
:14105C00010000000000000000000000080000000000000077
:2010700030000000000000000000000098100000040000000000000001000000FFFFFFFF87
:10109000FF00000001000000080000000000000048
:2010A0002C0000000000000000000000C4100000040000000000000001000000FFFFFFFF2F
:0C10C000FFFFFFFF080000000000000020
:2010CC0038140000E410000095A1011091A70110A1C2011009B2011041B80110A5BC011078
:0810EC0085BC0110300000007A
:2010F400280000000000000000000000141100000000000000000000FFFFFFFF0000000093
:081114000800000000000000CB
:20111C00341400003011000065C2011069C101101BC2011091BA011005BC0110E5BB0110EA
:04113C00330000007C
:20114000341400005411000071C20110A5B6011099BF011045B60110B5BA011025BC01104B
:041160003400000057
:201164002400000000000000000000008011000000000000000000000000000008000000AE
:041184000000000067
:20118800240000000000000000000000A41100000000000000000000000000000800000066
:0411A8000000000043
:2011AC00240000000000000000000000C8110000000000000100000000000000080000001D
:0411CC00000000001F
:2011D0000000000004210020040000000000000000000000200000007010000030000000E6
:2011F0001C1100000C2100200400000000000000000000000C0000003013000018000000FA
:2012100040110000142100200400000000000000000000002400000048130000180000007D
:20123000000000001C21002004000000000000000000000010000000A01000002C00000051
:20125000CC1000002C21002004000000000000000000000020000000641100002400000078
:20127000FFFFFFFF3421002004000000000000000000000028000000881100002400000004
:20129000FFFFFFFF3C210020040000000000000000000000580000003C10000034000000E9
:2012B000FFFFFFFF44210020040000000000000000000000100000006013000018000000FE
:2012D000FFFFFFFF4C2100200400000000000000000000001C000000AC1100002400000074
:2012F000FFFFFFFF5421002004000000000000000000000038000000F410000028000000E5
:20131000FFFFFFFF5C21002004000000000000000000000054000000001000003C00000080
:1813300018000000000000000000000040130000080000000000000032
:1813480018000000000000000000000058130000080000000000000002
:18136000180000000000000000000000701300000800000000000000D2
:0813780003000000AC0C0000B2
:0413800014F010B99C
:041384000100000064
:0413880000000E0053
:04138C0000000F004E
:041390003200000027
:041394000100000054
:041398008C20002085
:04139C00000200004B
:0413A0008D88010033
:0413A400FDC901106E
:0413A8000000000041
:0413AC00000000003D
:0413B0000800000031
:0413B4000000220013
:0413B800F41C002001
:0413BC00000000002D
:0413C0000000000029
:0413C400080000001D
:0413C8000000000021
:0413CC00000000001D
:0413D0000000000019
:0413D400080000000D
:0413D8000000000011
:0413DC00000000000D
:0413E0000100000008
:0413E400841F002042
:0413E80006000000FB
:0413EC0001000000FC
:0413F0002C1D002090
:0413F40000000000F5
:0413F80000000000F1
:0413FC0000020000EB
:0414000000000000E8
:0214040070472F
:021406002900BB
:021408000100E1
:02140A002400BC
:02140C003300AB
:02140E003400A8
:021410003000AA
:021412000100D7
:0114140001D6
:0814180003000000B80C000005
:081420000000000000000000C4
:0414280000000100BF
:04142C0000000300B9
:0414300083C4011060
:041434003C14000064
:041438003C14000060
:04143C0000000000AC
:041440009000000018
:041444009000000014
:0414480000000000A0
:04144C00E02000207C
:04145000A78301006D
:041454002000000074
:04145800100C000074
:04145C00A40A0000DE
:0414600009C30110AB
:04146400F745010047
:04146800874D0100AB
:04146C0095C801100E
:0414700097C8011008
:041474000000000074
:04147800400D000023
:04147C00140900004F
:041480002C09000033
:04148400FC08000060
:0214880008005A
:02148A00090057
:02148C0001005D
:02148E0000005C
:01149000015A
:041494000000000054
:041498000000000050
:04149C00000000004C
:0414A0000000000048
:0414A4008B8901002F
:0414A800216A0100B4
:0414AC008574010042
:0414B000656501006D
:0414B400BB61010017
:0414B800A558010032
:0414BC008D0D010091
:0414C000338601006E
:0414C400F53E0100F0
:0414C8000DC801103A
:0414CC001DC8011026
:0414D0000800000010
:0414D40024000000F0
:0414D80018000000F8
:0414DC0028000000E4
:0414E00020000000E8
:0414E4003C000000C8
:0414E8000C000000F4
:0414EC0034000000C8
:2014F0008D05002161040021A1040021A5040021CD040021710600212107002149070021CF
:201510003B050021010500218B070021AD07002179050021F8B51047F8B50E4600210125C0
:20153000AD0430470D480378D80702D046488121416000F00FF89B070BD0134C2078FF288F
:2015500007D0FF2121700F490F24240220436031C882F8BDF8B50248004700006B02002183
:20157000E54C0000094801E00848000C064C05492278FF2A01D1CA7A22706031C882704600
:20159000801C00470062084018080021070F080800F090F805990A0A6C2A09D108207861AC
:2015B0002069401C38600A312061059100207861F8BD0000F0B4084710B501480047000056
:2015D0008909000000F018F8E1B250290BD0042801D0062807D10D490978C90703D121786B
:2015F000090700D402200A490A780C21114202D0084980220A60FEBDFEB5074908470448F8
:20161000017840229143017004480047C80000211701002100E200E0F1CC000003D1000092
:20163000FFB5054685B0034C2047FFB585B0DE01014C2047F73F0000CB4100000248812106
:20165000024A41601047000000500440674C000070B503461546012906D0002906D0114ACC
:201670002846FFF757FF70BD0F4800E00F480524834203D84008641E002CF9DCE34001200D
:2016900040031818820B012907D00649002380312846FFF741FFE0B270BD0249044B6C317C
:2016B000F6E70000835C0000A0BC862300830D23E8070021F8B51A4E0546716B1948CC0924
:2016D000E401002D11D01849097802290FD0007B044372B60120154F4002B84711482038BA
:2016F0000088C109C90704D016E0C07AF0E7407BEEE70F497463CC61400AC0070CD00120E3
:201710008003316B002D01D0014300E08143084631630749403948630020B84762B6F8BD72
:2017300080020021880000219B0200217B3F00004040044010B5224A0021516121498968B2
:20175000C90009D42149204BCA0598424B6B01D8134300E093434B631D49FFF72BFF10BDB9
:2017700038B51A4D287F002827D11A480088C009C00722D1124C606900281ED1684600F0F5
:201790008FF868460078012817D168464078102813D208206061686A4009400120600E4ADB
:2017B0000021D1620D4A02211160012108432060032108436862206038BD0948804738BD32
:2017D00000400440180000210000930880020021CF680000680000210011044080E200E0A7
:2017F000C33B00000749002800D00420064A72B60978C90701D0105800E0802062B640B2E3
:20181000704700006B0200215860044010B5034CFFF7D2FE20680028FAD110BD0011044000
:2018300010B541200E49C00088470E490246886B496B90244B01C104C90E0B430A49634363
:20185000497D5943094B9B68FFF7EFFE10BD10B5FFF7E6FE040001D1FFF7E2FF204610BD90
:201870007D3C000080500440800200210040044010B501880A05930F084A03D18905890D1B
:20189000112901D0904710BD90470446012803D172B6FFF7C5FF62B6204610BD45260000D3
:2018B00003B40148019001BDA56F000000000000010003000A001F005900EB003902EA041B
:2018D000F9099712EB1FA132784A0A66FA828C9E63B617C964D6EDDEC1E3E0E5FF00000032
:2018F000A36100007F1407134D00F1242E1F133FB00A3F0007FF00003040004001400340F3
:2019100007400F404F40CF40CF41CF43CF47CF4FCF3FCF2FCF1FCF0F000000000F0008003E
:2019300000003F00000040003F000000040068000E00DC00060043001A000500000000001B
:20195000020000003F00000000000400C00000000400C0000000070050C00091007070C066
:201970000091007082312100319110B10070018101B100A18231329110B10191111041810E
:2019900041224F40F106007051C0019130181039833108D01831416F3100319110B18314DA
:2019B00014165B680070251050C00091F4C3C0C02014036F3110410422C082312100319109
:2019D00010B163393110410482C082312100319110B163393110A2C082312100319110B1E5
:2019F000501015310514059200703F6452C0311031066131C102426412C131102139710604
:201A10005131E102426400708A65996588C0208250398039001E9F4041C001301814181A95
:201A300089C0308260398039001EA94041C001301914191A3C64369110B1349110B154B0FE
:201A5000007154A064B0F0800022AF404012B09032B053825339533985643F6411C122C1DA
:201A7000426470C1C26811C1C2C0426470C1C76850C000912772989215161416421053108D
:201A9000F0C12182313131398139313151B070B272652772999270B262107310F0C33182BF
:201AB0002131213981391B107265E2C08231608280318039020061B00071329110B151A014
:201AD00061B0277230C2F36800008012B09032B0007050C000912772999262107310F0C3CE
:201AF000318221312139813951B070B27E652772989270B242105310F0C1218231313139FD
:201B1000813931311A107E6551A061B02772B0C018693F6401C122C1426401C1C2C0426428
:201B3000151A3C64359110B153828564C012B09032B000703F6472C281C0426422C111C1AA
:201B5000426402C011C1426462C031C3426462C311C1426402C311C14264538253398564B5
:201B7000E2C347641122404142C281C8426452C211C1426472C2E1CE426402C281C8426496
:201B900002C201C84264B0C0546900703F6442C201C8426452C211C0426472C2E1C0426449
:201BB00002C001C1426462C001C3426422C101C1426462C301C1426402C301C14264538285
:201BD0008564007061B000711214231C7A4D339110B10070329110B17269007061B00071A8
:201BF0001318321C8649329110B10070339110B17E690070C2C047641510C2C01216476416
:201C100041311514C0C0803105145410A07804040070E6C0863101CC161467106182F0C37A
:201C3000010417140070067305720B720E7250B00071818060B050A092804122C345808018
:201C5000F1C11004301601110114016CD661D761D861D961DA61DB61DC61DE61E061E2617B
:201C7000E461366339639180F2C0210421318280422A1214321601112114016CEE610B6254
:201C9000F4613963EE610B62F4613963E661E661E661E661E661E6619464E661F964E66109
:201CB0002A65E6615665E6614667E6611012B0900E720673057210123090A761F0CF3C672A
:201CD000D4C103C0C0C3546440785091507810926078209270783092807840929078609266
:201CF0003078909110824039F00601101031101400924267E661BCA0E2A054A0F08050225E
:201D10001546408000222B470D6240A02D828D318D391082F1C0100409101A824A391A04D5
:201D30001082803910040E10AB10BC10C21063642972E0CF3C6713B003B0C86653B050B062
:201D500054B064B013B0A5661082E0223846AE660071418001222B47F08010224B46F0225B
:201D7000184764B03122384263B0CE661082E02238467066386264B06F818F318F3DD0DF0B
:201D9000FF923C670071418001222B4764B0F0805022654263B01182C1226046CE660567CC
:201DB0001182D122524670665262618172818131813D8231823DC0EFF19202933C670B62DD
:201DD000B081C091D381978290A2D3187F4EF30B1316E31CA44AC391E3813B149062BA1C37
:201DF0008B46231E8B4AE31C8B4E90B207228B4290A21B1A9662E31CA44AC391E3813B1885
:201E1000AB1CA04E9B1CA24ABC1CA442B2101082D0229D42F0801022A4466364A566A46213
:201E3000AB1094629B10946200703082F1C0100463B00071A86ABC10E0B00070B281C29171
:201E5000D281018212185181121841828131813D121CBF4AE2B032B0B0DFF2923C67F1C72A
:201E70002114C34E12C86291729131B0E1B0007008C006C000C86091709100700182B081EE
:201E9000C091D0811018518110180614E18042828231823D201CE44AE2B02122E84632B06E
:201EB0000510A0DFF5923C672122E842E2A032B031824139F0C00104011EF642181610C04C
:201ED0001030081C04476010103C0610F1C76114FA4E16C8669171818131813D161C014B47
:201EF000769131B006C008C0007061818131813D408280390118F11C174B0114B080C02270
:201F10001747BCB033B090EFF1920F933C67007003A063B064B0EFB05665007140800022D6
:201F30002B4764B02A65EFA00071408000222B4764B003B03862018262818231823D80EF80
:201F5000F19202933C6703A05665E661A2806364E66150B00071E661E092D08200223D47BF
:201F7000C0B20070A080F022594330B002C1623101C0A080001E5243F0225343A0F5603109
:201F9000603953632010101A136F236E11161216546B0070FD800000FDBD000000000000C0
:201FB00000000000000000005D7D010089810100D92001004D810100A58801009F8801000C
:201FD0009D8101000000000005880100A5290100E1360100F1790100C99900003B830100D1
:201FF0003DE60000E961000041680100994A01000000000001400100DF85010009D5000051
:20201000F6C0080000004100000001C3100000024210000003C414000004C518000005C602
:2020300018000006C71C000007C920000008CB24000009CD2C00000AD33800000BDA50005C
:20205000000C18B800000D3FA600000E3FA700007FFFFF3F00F6C004000000C31200000162
:20207000C416000002C518000003C61C0000044418000005C820000006C924000007CB2A76
:20209000000008CE32000009D24000000AD85800000BE59000000C2BBC00000E3FAB000068
:2020B0007FFFFF3F00050000F1610100C18001002D0A0100ED870100178901002106010044
:1C20D000516F010045880100518801004B8801001020000065200000652000007D
:2020EC002DE9F04FADF1240D13F066FF16F015FC804608200CF068FF10F022F810B1A3A0C2
:20210C0016F04EFDAE4C6068406880476068C16804A888476068836804AA0020014698471E
:20212C00A06010B9A1A016F03BFD15F0A5FDA64FC4F8E070A54DC4F8E4500026A4F85C6043
:20214C00A048C4F8DC00A24BC4F8E830A14AC4F8EC20A149C4F8F01004F5C877C4F86C7108
:20216C0004F1C805C4F8705104F1DC00C4F8740114F0CEFD04F51E70994BC4F87801994AC0
:20218C00C4F8103104F1A0072262944DC4F87C719549C4F8B85005F16E006162944BC4F828
:2021AC00BC00944A6367914DA26793492567B4F85C70E16747F00100A4F85C00914BC4F8D8
:2021CC003832914AA2618D4FC4F818728C4DC4F8285204F17000C4F88C0114F083FD8D4B70
:2021EC00C4F88C33894FC4F884738C49C4F89413894AC4F890238B4BC4F89C33884FC4F85F
:20220C0098738A49C4F8A413874AC4F8A023804DC4F88853874BC4F8AC33854FC4F8A87395
:20222C008649C4F8B413844AC4F8B023B4F85C0084F8806340F01000A4F85C00804BC4F8BD
:20224C00BC33D34FC4F8B873D349C4F8C413D14AC4F8C0237B4D2E706E70D14B2E61CF4F04
:20226C00C4F8CC33D049C4F8C873CE4AC4F8D413DFF85493C4F8D023CD4BCC4FC4F8DC3361
:20228C00CD49C4F8D873CB4AC4F8E413CC4BCB4FC4F8E02309F10E01CA4A1E700888C4F866
:2022AC00E8730E30167080B215F010FA07466F6117B916F0FAFA6F6900978DF804609DF8DE
:2022CC000500D14966F301008DF805009DF805004B4666F383008DF80500D8899DF8052043
:2022EC00088066F307128DF80520ADF8060068696946082215F0FCFC2F626E6213F042F83E
:20230C00D04D2878012802D0304603F0C5F9CE48CE4F0670AB463E709BF80000012802D0FC
:20232C00304603F0B9F940461DF0FEFA02F008F815F0ECF994F82F0412F01CFE012003F020
:20234C00ABF90FF02CFBD24806709BF80000012802D0304603F0A0F90EF078F8CD4FCE4AE5
:20236C000721334607F1140014F050FECB4DB84604F164074FF48042C949069728784A80BE
:20238C008946087004F158020792F3E052616E646F6D5F736565644175746F6D6174696327
:2023AC002829206661696C656400C04643727970746F206F70656E206661696C656400C09D
:2023CC0008020020A184000021390100F178010065A6000055DE0000711F01000405000005
:2023EC0099CF0000DB870100898401000DBF0000C5B10000394F0100956401005944010095
:20240C00E91F0100C3880100B59C000085FF000071640000291A010025620100217F000045
:20242C0089E80000295F00004530000069110100D582000071D10000D5800100419B0000DC
:20244C00457201008C2B0020E868410907D32E208DF8140005A810F0B9FDAD48006841087D
:20246C0007D325208DF8140005A810F0AFFDA8480068810807D326208DF8140005A810F0F8
:20248C00A5FDA3480068C10807D327208DF8140005A810F09BFD9E480068010907D32920F8
:2024AC008DF8140005A810F091FD99480068C10909D38DF815602D208DF8140005A810F0C0
:2024CC0085FD93480068010A09D38DF8156030208DF8140005A810F079FD8D480068410AB6
:2024EC0009D38DF8156035208DF8140005A810F06DFD87480068C10A09D38DF815602320DA
:20250C008DF8140005A810F061FD81480068810A09D38DF8156036208DF8140005A810F0DD
:20252C0055FD7B480068C00B0FD3D9F8087067B1D7F80CA0384616F02FFB384613F0BAFEA2
:20254C005FEA0A07F4D1C9F80860676D6FB116F0E4F9616D666503911DF0E6F90398A06597
:20256C0010F034FD079813F097FD3046E86016F00FFB287865490B783BB1664F183F17F842
:20258C00181F884222D05B1EF9D1304625E0C046194E0100ADCE0000B9A70000F56D0000D3
:2025AC000F790100ADED00004946010085FF01002D510100797501006D7C01007588010081
:2025CC00452C0020472C002080190020F8684FF0FF3116F0D9FA78690088E86016F0D0FAE9
:2025EC002878A98910F0EEFB16F097F998F8011088F801608A0809D2C90812D31DF094F93F
:20260C00304603F049F80EE09C1800201DF08CF99BF80000012802D0012003F03DF816F0D3
:20262C007CF91DF081F9E868800905D3069814F021FA0028039035D1E868000CFFF404AF61
:20264C0014E0C046D1200020492C0020412C0020D02909D18178E970C17869700179A97077
:20266C0087686F61C168A96115F058FE287811F0F9FA002803903FF4E7AE0178D029E7DAB7
:20268C00A06510F0A3FC079813F006FDEEE7C046462C0020E41F00207B89010078070020B1
:2026AC00D420002016F039F994F86C10491E84F86C101DF039F9039801788DF81410A0655A
:2026CC004778CFB1DC2F0DD0DD2F0BD0E42F09D0F32F07D0DE2F05D0DF2F03D0E82F18BF4A
:2026EC00DB2F0BD10BF05AF89DF81400162805D103A813F0D1FC01E010F068FC9DF8140075
:20270C00162893D0079813F0C7FC8FE72813002084070020481300202DE9FE4FDD49814660
:20272C000122A1F130000260D8480768002FFCD0D74AE34EC027D848D84B17603268920895
:20274C0008D2324652F8042C03F14104120C42F0F00222704FF0000A8346C1F800A0DFF852
:20276C008CC3DBF80810E04F0191880E43D2480E41D3802018744FF6D802A3F8512018705E
:20278C003868C0F30464162CA8BF203C1E460F3E307800F01F001628A8BF2038844223D04F
:2027AC00624602F1980EE44ACEF800A0251A022D05DC15F1020FB8BF6FF0010500E00225EF
:2027CC004019156800F01F05844245F4F855A6F866504FF001051560E8D110682E4616608E
:2027EC001068CEF80050106838460068C0F30420162808DB06E0A7F1D0000068C0F304601C
:20280C00162800DB203800EB2170401C162805DA10F10A0FB8BF6FF0090000E01520D54E15
:20282C0000F01F0040F4F850A3F85900306880083ABFD148C0F800A041F040616246C80E33
:20284C008E0E80F0010000F00100106086F0010000F001009060019810F0B8FC01461820DA
:20286C0013F0F4FCA7F13806CD4C30683568A4F10408C0F3870105F0030041EA0021D8F845
:20288C000400C04D446840F2FF32534688B22C21009028464038A047F06AC0F30D011C2038
:2028AC0013F0D4FCB549706A014000F07C400143142013F0CBFC316A01F47C000904090C04
:2028CC000143102013F0C2FC7D4AB06A1268C0F30351C0F30344520813D2DBF80020130511
:2028EC0011EB237103D41029A8BF0F2100E05146120414EB227403D4102CA8BF0F2400E0E6
:20290C00544644EA011400F47F4200F0FF01B9F1220F42EA044241EA020124BF00F080401B
:20292C0001430C2013F092FC954CB9F1220F32BF01202068C0F30070B9F1220F4FEA4000BD
:20294C0040F0200085F8090126BF2068C0F3407001208D4EB9F1200F40F0100085F8090128
:20296C0038BF514606D33168C80C00F44070C1F384510143282013F069FCB9F1200F26BF98
:20298C003068C0F301505046B9F1220F4FEA400040F0600085F80C0126BF2068C0F3C0604B
:2029AC005046B9F1220F4FEAC00040F0800085F8010126BF2068C0F345505046B9F1200F4E
:2029CC004FEA800040F47C40A5F89C0138BF6F490AD3306801038A15920501F47C1100F038
:2029EC000F00114341EA0031082013F02FFCCC3F4FF480002860664AB86D40F21E216FF3B8
:202A0C001F40814216D93868030E03F00F0113F00F0FC0F3034018BF491E072805D006285E
:202A2C000EBF0720801C00F00F0041EA0011A2F108000170DDF804C0CCF381477F1E02D024
:202A4C007F1E31D02CE02068810C29D24FF480412960D2F80210430AC0F3033703F0800397
:202A6C0021F08F010B4347EA0301C2F80210D2F80130060A66F30303C2F80130116800F09C
:202A8C00E70721F0E70147EA01000CE09402224300600C4040100940AC3F005015620840EB
:202AAC004FF000402A46106005480068C0F3C0070FB94020A8624FF40070286402E0C04623
:202ACC00B03F005020684027C0F3C14040F0300085F8C800CCF3815080B3401E08D0FFE784
:202AEC00401E23D0022122E08813005000002043012014F031F806460420314610F08AFD4A
:202B0C00042014F029F88642FAD12248066826F07F4013F02FFED8F81400036807214FF03A
:202B2C006022300E98474FF4806028600321042010F070FD09E0C0462C20094004200121C0
:202B4C0010F068FD144813F015FE203C206800F03F0085F8CB0FD8F80030124ED9683068EF
:202B6C000220884710480D4C076001212160BDE8FE8FC0460000094094042A43FCFCFC0023
:202B8C008C13005040A00C409813005000803F400A600840A83F0050BD3786009404604277
:202BAC00A40100102C20094000600C402DE9F04FDFF860B30F460446F80BADF1140D80F003
:202BCC00F181DFF84C83B80F80F0A681B80880F09381DFF83883F80A80F0F580380B80F003
:202BEC00CD80380907D2F80FC0F00E8227F0804710F050FB08E215F090FE814614F064FB4B
:202C0C00002800F0B580082015F044FD002840F0AF80802015F03EFD002840F0A98004A859
:202C2C000DF0F8F9012803D10498002800F0A0805846C9300078002840F09A8000240125FE
:202C4C00E0B215F0AFFA48B1867A3EB1857290F9090005FA00F0C0B213F022F9641C032C89
:202C6C00EED344460320207504F1B40015F04BFE48461CF059FEC9480026324601680660DF
:202C8C0050F8081CC64940F8086C04F1380015F04CFE304614F0AAFC15F03EFAA168401AC5
:202CAC00010BE069C1F1FF3282422CBF08444FF0FF30E06194F8200020B12069E169B1EB3A
:202CCC00C02F25D914F0F2FC314600B12946081C1BD0D14840F6090101804680417B05F012
:202CEC000F0221F00F010A434273017B06F00F0321F00F0143EA010202733146416015F02D
:202D0C008DFB418811F4406FFBD084F82050E66112F09AFEC14831460660022014F0C2FA42
:202D2C00022013F0E1FA11200BF008FE207818B96068483015F001FEB948007810B90E2038
:202D4C000BF0FCFD94F8210020B184F82160052013F0CAFAB348A0612675B4F98C00B4F98F
:202D6C008E10884214BF022007200EF091FB02E048461CF0D9FD27F0080739E74446201DDA
:202D8C00056813F071F838B12846ED696FF4807100224FF00073A847E06848B115F0BCF98F
:202DAC00E2686168801AC860000BC8600026E6609D4904F13800002215F0B7FD27F4006723
:202DCC000220207514E715F0A8FD064614F07CFA4446216F0028884600F08880002900F0A4
:202DEC0085809249042504F138000022257515F09CFD30461CF098FD04F1B40015F083FDF2
:202E0C0015F08AF9E060D8F810006060D8F81000416AC90803D3036A29460022984701200E
:202E2C0011F096FA824815F0F9FA65684FF0010985F8159060680FF079FDD5F808A040F613
:202E4C000A02D01F564600F1010C00E01E46736833B119888A4203D0884218BF8C45F5D156
:202E6C0000217160727B09F00F0322F00F0213437373D8F80C201288904225D06046904228
:202E8C0022D02C8E0CB3696305F13002518095F83C0001F00F0320F00F00034385F83C30DC
:202EAC0095F83D0009F00F0420F00F0044EA000385F83D307260707B01F00F0420F00F0016
:202ECC0044EA0001717300E0E160504669460AF013FE684615F092FA15F046F9504615F044
:202EEC009DFA5146484614F0DDF902E030461CF01BFD27F4806787E008F0C6FC404670306B
:202F0C00006808B927F002077EE0C04688210020902100209022002015F0FFFC81460420A1
:202F2C0013F01AFEC0B1207DB0B14046006898B12569064615F0F0F8801B2061000B206155
:202F4C00A84202D240194008206140F6C41181422CBFB0F5967F216148461CF0E5FC12F013
:202F6C0083FF88B1E56920466FF4807100224FF00073A847404668300068002808BF47F013
:202F8C00020701D010F086F92046A46900214FF080630A46A04727F0005735E014100440F4
:202FAC00293D010015F0B9FC22490E6846B306F1280106C90A234FF0E0450B40154008BF23
:202FCC00002B1DD106F1280191E8300006F1280393E8060006F12803AA43A14383E80600FC
:202FEC001CF0A2FCB16869B1002D08BF002C09D030692246B6F93C10B4682B46A04701E09E
:20300C001CF092FC27F480471FB15846394615F09CFC05B0BDE8F08FD42B00200000046042
:20302C00960C000059D200003DF100009976010001010E04102200202DE9F04FADF1840D8F
:20304C001A9104461B920DF15F00CA491C93082214F04EFE2046694613F08EF85FEA000B37
:20306C0003D1002001461F90FAE102200027A41C1D90D44E1F97204602A911F064FA5FEA38
:20308C00000800F0E9811F990DF1410016220EF07BFE9DF809707F1E00F087807F1E40F0AD
:2030AC00D381B8F10A0F40F3DA81A41C06A80422214614F01DFE241D07A80222214614F0C7
:2030CC0017FE42F20B000DF11E0111F09FFEBDF81E00BDF81C10884200F3C181A41C14F856
:2030EC00010B14F8017B14F8015B8DF8410014F8011B8DF842700DF141028DF843502046E4
:20310C0005F03EFDCF4909780028044400F0A78101290BF1020700F08D814FF400500DF194
:20312C00570111F073FE0DF157000DF15F01082214F05AF940B11A990DF15700082214F05E
:20314C0053F9002840F0768142F2010006A906F0F1FC42F20B0007A906F0ECFC42F20500FB
:20316C000DF1410106F0E6FC0DF1420142F2060006F0E0FC0DF1430142F2070006F0DAFC95
:20318C0011A942F2090006F0D5FC9DF8440028B1022840F04F8142F2030001E042F20D0030
:2031AC000DF1450106F0C6FC44E1B8F1040F40F35681A41C14F8010B14F8017B14F8015B54
:2031CC008DF8410014F8011B8DF842700DF141028DF84350204605F0D3FC0028044400F0DB
:2031EC003E811A9808A905F04DFF9DF83E00002840F002819DF84400002878D1B6F84E70FC
:20320C00002F00F0F780B6F85200874207D0308B718B884201D109F0FFF9B06D20E0B76DE7
:20322C004FF4005004A911F0F1FD15F0A5FC4FF6FF791F9D1E90AA46B6F84E00A84240DC94
:20324C00B06D4FF6FF7149450AD04FEA490707EB89073818808811F091FDB06D3F1820D1D1
:20326C00B6F84E300746002B08BF1F9D16D01F9D1846BF1FBF1DFA782AB1401E05F10105BA
:20328C00F8D1BF1D0AE015F048FBB6F85210491CA6F852101CF048FBB6F84E30AB4200F07E
:2032AC008E801A980AF0BEFBB8800120F870FD788DF83E50B888ADF83F001F9B8DF82B3088
:2032CC009AE0B88811F07EFD0146082204A814F08BF840B1388801041E9815F01AFB8245BB
:2032EC003CBF8246A9466D1CBF1DADB2A4E7B6F84C70002F7ED0B6F85000874207D0308B81
:20330C00718B884201D109F087F9706D1FE0776D4FF4005004A911F079FD15F02DFC4FF6A6
:20332C00FF791F9D1E90AA46B6F84C00A8424BDC706D4FF6FF71494509D009EB4917381807
:20334C00B0F81F0011F01AFD706D3F1821D1B6F84C300746002B08BF1F9D18D01F9D184635
:20336C00213F2137BA7F3AB1401E05F10105F8D121370CE06C01000015F0CFFAB6F85010B5
:20338C00491CA6F850101CF0CFFAB6F84C30AB4215D01F99384621220EF0F6FC1A980AF0D8
:2033AC0041FBA7F81F000123FF2039462122BB770546787208A8FD7214F09AFC1CE0612065
:2033CC005BE0C046A0100020B7F81F0011F0FAFC0146082204A814F007F838B179681E986B
:2033EC0015F097FA82453CBF8246A9466D1C2137ADB299E7642040E09DF83E000DF141013B
:20340C00162240F004008DF83E000AA814F070FC9DF844000BF1020748B19DF856500DF13F
:20342C004500294610F08EFD2D1A8DF83D5008A80FF0DAF91D9808EB0005AD1CA8B21D90E9
:20344C0006E0C0460A02002044440BF10207A41C1D9887423FF70FAE1D98022803DC1F9914
:20346C000A46672005E0ABEB00021F980BF10201921C1B9B19801C990A8021B0BDE8F08F05
:20348C002DE9F04F5648554C007800212422ADF13C0D08232070684615F06AFB4FF0010AA9
:2034AC0004F11805002128466A468DF818A015F05BFB656015F054FB294604F108020FF091
:2034CC00B5FC6070102014F03FF8011C0ED0D0200027087022464F7052788A70CF700F71C0
:2034EC0026468F603078CF6011F0AAFA15F015FADFF800830D90002588F8035013F008FCDF
:20350C004022294608F53B700EF03EFCBA4C04F1080001882C2707FB01F00DF007FDC8F85B
:20352C00100308B915F0C1F9E07A21894143480000EBC1000DF0FAFCC8F8140308B915F0E0
:20354C00B4F9E1882089484380000DF0EFFCC8F8180308B915F0A9F9208980000DF0E6FC62
:20356C00C8F81C0308B915F0A0F9208980B12A46D8F8101389180D75D8F8101389180D718F
:20358C00D8F81013401E114402F12C028D81EFD1A188880000EB01100DF0C8FCC8F8200339
:2035AC0008B915F082F9A9464FF6FF7BCDF8309040E0304613F05EFA0B900BA812F06CFDE1
:2035CC00C5E0304613F056FA0A900AA812F064FDB8E009A812F060FDA2E0C0468C1E0020C8
:2035EC003C0C0020A37AD8F820734846860006EB0016D8000DF09AFCF119F319C860DF68CC
:20360C000FB915F052F9A77A87B12846D8F820138919CB68C200AC4642F803C0C9687F1E68
:20362C0000F101001144A1F804B0EFD109F101001FFA80F9A0884845D4DC8248FF21082224
:20364C00C01D0EF0A1FB7F48FF21082288F8FB1210300EF099FB032688F80C632789A8F80F
:20366C000EB3B7B104232846D8F81C13820002F801A0D8F81C1389184B70D8F81C13891869
:20368C008E70D8F81C137F1E00F101001144CB70EAD16C48042205210227343000F804AF0F
:2036AC00427081707F1E80F803A0F7D16548A78880F83C6098F880634FB12846D8F8201307
:2036CC007F1E014400F11400A1F802B0F6D1022088F8F0021EB1D8F8840300B1804715F0AE
:2036EC001BF898F92E0414F046FE13F027FB14F095FD14F0B1FB14F0A3FB404E072456F88C
:20370C00040B00B18047641EF9D114F0EDFB444604F15400016809B112F0BEFC84F85E5002
:20372C00207810F09FFA002809907FF452AF34480078012802D0284601F0AEFF314804F1AE
:20374C0060060570206E00287FF43BAF361D606E00287FF42EAF25662B48C4F890016566C0
:20376C002A4FC4F8947184F86A50294EC4F8986184F86B50274BC4F89C31A570264AC4F82E
:20378C00A02184F86C502549C4F8A4112849C4F8C810234FC4F8A871264FC4F8CC70214E1D
:2037AC00C4F8AC61244EC4F8D0601F4BC4F8B031224BC4F8D4301D4AC4F8B421204A0D989B
:2037CC00C4F8D8201CF0B0F804F21541522006F08FFC94F82F0411F0F1F914F09DFF1A4989
:2037EC00E220103115F07FF8174840680FB0BDE8F08FC046080200208019002018030020F0
:20380C00D1200020442C0020071E0100BD880100B9700100398D0000A9D70000F9760100AF
:20382C002D64010015B400005DA20000E1700100AB0E010051AA00007D2A0100C1030100AE
:20384C0031340100F40400208C1E00202DE9F04FB94C0546A07AADF1340DC0000DF066FB58
:20386C000028089000F0A88115F057F80B900AA9822004F0F5FEBDF82800002834D14FF0EF
:20388C0000084FF6FF76ADF8288024E0ADF81460BDF82800ADF81660FF210822ADF81000F9
:2038AC0006A80EF071FAA77A57B143461946089AC8007F1E01F10101135010448680F6D155
:2038CC008DF82480D42004A902F004FFBDF82800401CADF82800A088BDF828108842D5DC87
:2038EC0082200AA902F0F6FEC34F0020A0464FF6FF79A2463988ADF8280006E0BE4FBDF88E
:20390C0028003988401CADF82800BDF82800814240F34281B94800784FF0000B01265C4667
:20392C0008E0BAF80600641CA4B23CE0B348641CA4B20078A04208DC002EDFD1BBF1000F41
:20394C002ED1E87F0028D9D02AE0BDF828008DF802406946ADF80000D02004F081FE002897
:20396C00E4D19DF80C30012B08D19DF80B0028B90DF1030014F0D0FA0028BFD12F7D002FCD
:20398C000CBF052209225E469F42CFD10DF1030005F1150113F03AFE0028C7D04FF0010B87
:2039AC00B8F806000024A04265DDBDF82800ADF802406946ADF80000D12004F051FE002889
:2039CC00AFD1BDF804008145ABD0ADF8100004A9D42004F045FE002840F0038106A8291D04
:2039EC00082213F013FE00289BD028886F88ADF81400BBF1000FADF816702AD0287B98F877
:203A0C000A708DF82400381C08BF00200FD00899024600208B88994509D0BDF828609E426D
:203A2C0005D0521E01F1080100F10100F2D1874207DC0B981BF078FF0898002800F0D880A4
:203A4C00D4E008992A69C000BDF828700A5040188780D42004A902F03DFEBBF1000F0AD049
:203A6C00A87F9DF80610884205D08DF806006946D12002F02FFEB8F80600A0427FF43EAF87
:203A8C00B8F80400DFF878A1002499E006AB184614F042FA50B9291D1846082213F0B6FDFD
:203AAC00002808BFB8F8040000F088806F882888ADF816702E7BADF8140098F80A708DF89C
:203ACC0024603B1C08BF00200FD008991A4600208B88994509D0BDF828609E4205D0521EEC
:203AEC0001F1080100F10100F2D1874206DC0B981BF01AFF089800285ED05BE0089A2E1D7A
:203B0C00BBF1000F0CBF00212969C00011501218BDF8280031469080082206A814F0E8F8F5
:203B2C009AF8800330B1DAF8D0231AB1BDF8101030469047002603E080190020761CB6B215
:203B4C00B8F80600B04221DDBDF82800ADF802606946ADF80000D12004F082FDE82803D034
:203B6C00BDF804008145E9D1BDF810000023ADF80400AF7F8DF8073004A98DF80670D420E9
:203B8C0002F0A8FDD120694602F0A4FDB8F80400B04213DDA04208D00B981BF0C5FE0898EE
:203BAC0008B112F087FB002023E00B981BF0BCFE089808B112F07EFB1A201AE0641CA4B253
:203BCC00A042E7DDADF81040D42004A904F048FD00283FF45BAF0B981BF0A6FE089838B124
:203BEC0004E00B981BF0A0FE089808B112F062FB19200DB0BDE8F08F881900208B19002032
:203C0C00080200202DE9F04F1E4617460D468246ADF1540D14F0B0FF5C4C3C2204F110017F
:203C2C000860002102A80EF0AFF8296802A801606968416029890181287A032804D002209B
:203C4C0003258DF8140002E003258DF81450207818B104F1340014F0BFFDA08E6178ADF8AE
:203C6C0012001F29B4BF481C0020BAF1050F607041F080014FF0000011900BD0BAF1040F2D
:203C8C0005D0BAF1020F08BF41F0600104E041F0200101E041F040018DF81510ADF83070B6
:203CAC0001200B96BE498DF816000A680DAB1A60496859608DF83D50BAF1050F8DF83E50A2
:203CCC004FF005078DF83C7012D0B4F85E00BAF1040F08D0BAF1020F0FD1B4F86400401CD2
:203CEC00A4F8640009E0401C80B2A4F85E0004E0B4F85800401CA4F858009DF81C00012835
:203D0C0007D19DF91F0010F033FFB0F1FF3F00F03881A4489DF817700178A3481FB990F884
:203D2C006B208A4207DB012F40F02B8190F86A208A4280F226818046BDF830009DF83D605E
:203D4C0012909DF83C70DDF84490BDF824500A9813965FEA000B1BD098F88013002900F0DC
:203D6C001081D8F89813002900F00B8100F0FF008847D8F8981306B20BF47F0088473618FA
:203D8C0030B2001D00B2C83086B202E0B4180020C8260DB12D1DADB298F82404012809D158
:203DAC0047B1824813993F1897F80490405C8019401D86B21298401980194844801C80B24F
:203DCC0013F0C2FB071C00F0DC8012987319002D4844DDF84490388103EB070078600EBFBD
:203DEC004846B819801C78224946C7F8A40007F10C000DF0C9FF1298FF2110228019401979
:203E0C00A7F84C0007F13C000DF0BEFF07F12C000F2110220DF0B8FF87F8009087F8019064
:203E2C007868BDF830200B9913F062FF07F184000DA90B2213F05CFF07F1900002A913F096
:203E4C00E8FEBDF81200A7F89A009DF8140087F89C009DF815000DF1160687F89D00326832
:203E6C0069460A60706848609DF800104846012908BF01209DF80110012908BF40F004008D
:203E8C009DF80210012908BF40F008009DF80310012908BF40F010009DF80410012908BFD3
:203EAC0040F020009DF80510012908BF40F040009DF80610012908BF40F080009DF80710A3
:203ECC00012908BF40F48070A7F89E009DF81E0087F8A0009DF81F0087F8A1009DF8400009
:203EEC0087F86C00BDF82410A7F8A81029B10A46D7F8A400089913F0FBFE9DF8260087F817
:203F0C00AA000A98C7F8AC00B7F8A800C8B1D7F8A400B0B17868401E7860F82101707868BA
:203F2C00401E786080F80090B7F8A810B7F8A8607868401A786038898019801C3881786878
:203F4C00B865B7F89E00410A13D39DF83F10052917DB00F0040100F00100084311D108F1AA
:203F6C00900420460DF0CEFE9DF83F10204613F0FDFB98F80000394610F062FD01201190FD
:203F8C000AE0BAF1050F07D1E06A12F083FCB4F85800401CA4F85800119815B0BDE8F08FE3
:203FAC005907000080190020080200201C0400002DE9F04F064692F808B0307D09AF88467C
:203FCC00ADF1240D04933528039205D0114606F170000A2213F08CFEDFF8C8C238F07F0524
:203FEC0006BF604600884FF6FF700590F08A800934BF002008203076F08AC00834BF102030
:20400C0080207076F08A400903D260460E30007800E00020B076F08A41082CBF20240024DE
:20402C00000928BF44F010047568002108F07F08307D06916D1E02280EDB0C2808DC0C2891
:20404C0003D1022044F40854069044F0030404E00D280CBF02200120044396F88C0008B1B8
:20406C0044F00804E110220900D328B1DFF8C09299F8243413B908B1DF204DE149086ED3D6
:20408C0006F12401DFF8ACA296F88D50079100EB0A011AF805300A7999183389491DCAB2C1
:2040AC009918A54B1A8808908A42C0F2378100284CD0049A039906F184000AF0C7F8079991
:2040CC00002808603FD0806AB0F1FF3F39D070680023401E8DB196F88E10524600F80119F6
:2040EC00515D491EC9B241B18A1992F88320491EC9B2002900F80129F6D107997066096887
:20410C00896AB162090E00F8011996F82A1000F8011996F82910089A00F8011996F8281049
:20412C0005F0030500F8011902F0070141EAC501017071683589091ACAB27060A91831818F
:20414C0005E0DB2700E0F3277770E8E00023F08A7370C00828BF44F0100475686D1E336D44
:20416C00A3B9B36D93B999F83D14012903D13089B0F5EE7F06DA200904D202290AD144F4A3
:20418C00005401E044F48054012002E044F408540220069099F8020001280CD099F88003D7
:2041AC0048B196F86B00042805D1022024F48054069044F4005444EA8834B8F1020FA4B2D5
:2041CC000AD0B8F1030F10D1ED1F09F58661284614F083FB6D1E08E0B9F81604001205F82F
:2041EC00010999F8160405F80109069802280CD0B8F1000F15D0BBF1000F0CD004990598E5
:20420C00814208D144F040040BE0BBF1000F08D1B8F1000F05D00599081205F8010905F8B6
:20422C00011944EA8B24BBF1020FA4B209D0BBF1030F0ED10399ED1F284614F04EFB6D1E04
:20424C0007E003990888001205F80109087805F80109BBF1000F05D00498011205F8011949
:20426C0005F801093878F8B934480178307D0D2814D068B9306D28B999F80004411C89F8FD
:20428C0000140AE099F82504411C89F8251404E099F80E04411C89F80E14014605F801195E
:2042AC0004E0C0461A06002044F48074201205F801092C7070683789401BC1B275607818FC
:2042CC003081200927D3B06D00B1306299F8800310B1307D0D281ED1726A12F1150002D131
:2042EC0014F0E3FA726A916A481C9062306A3289B162471B0092D21B019090B20290706A1C
:20430C0096F88C202B4615300AF06AF800281CBF7070071C07D10020707005E0E52777708F
:20432C00F32013F090FCF8B209B0BDE8F08FC046080200201C0400008E190020902B002056
:20434C002DE9F04FCD4D286A416EADF11C0D02A888474FF00009D44FCDF80890B8688DF8F4
:20436C000C90002837D112F0EDF9C8B112F0EAF9012815D012F0E6F9052811D012F0E2F945
:20438C000C280DD012F0DEF90D2809D012F0DAF90B2805D012F0D6F90E2801D014F085FAE1
:2043AC0012F0D0F9787000280CBF48460120B870286A00F1200118B914F077FA296A2031A6
:2043CC00096807F1180088474FF4FA703885B74EFE6206243C63DFF8D882EA6998F83F4452
:2043EC004FF0010A4946080100EB41108018867F2EB9437F491C9C42C9B2F4D102E0417F28
:20440C00A14204D1824202D011F0D6FDEA69DFF8A4B2686A1BC88BE81B0097F901000128F1
:20442C0005D00D2803D00E2818BF484600D105208BF8000098F86D1450699F4C50F8210061
:20444C00C4F89C0013F030FB632005A911F0A4F898F83F0411F094FD064694F88E006AF3D4
:20446C00020084F88E0011F0C1FB042825D011F0BDFB032811D094F8900040F00F0084F8AA
:20448C00900094F8970069F3030084F89700B07B052814BF2420292016E094F8900040F0F1
:2044AC000F0084F89000292384F8943094F8970069F3030084F8970008E094F8900040F080
:2044CC000F0084F89000212084F8940094F8950069F3871084F8950011F088FB042818D0A7
:2044EC00B37A7BB99DF8140094F89510401E60F3050184F8951094F8960020F03F0040F0FC
:20450C00180014E09DF8141094F8950061F3050005E094F8950020F03F0040F0020084F84D
:20452C00950094F8960020F03F0040F0200084F89600B189B07BB4F88E200A23401D484333
:20454C0090FBF3F161F3CF02A4F88E20B08994F890201923800390FBF3F102F00F00D4F801
:20456C0090200F23484390FBF3F161F31C22C4F89020E86994F89820017F61F3020284F86C
:20458C00982094F89810007FC01060F3C30184F8981098F92E0410F0EBFAB0F1FF3F05D03D
:2045AC00010828BF4FF6FF70A4F89A00308971683368EA69401E414303EB51004FF47A7146
:2045CC00B0FBF1F0A4F8A00090690078A4F88290C4F8849094F88D3084F8A4006AF303034C
:2045EC0084F88D3014F092F8C8B9B089334A98F83F64B1FBF0F0C0B21070B1FBF0F03049FB
:20460C00022E887006D011F0F1FA032807D105225C2001E00222A8202A4B1A704870BB6857
:20462C002E6A6BB3484611F0F7F8F87898F83F14884212D13A7998F86D142E6AB8688A42F2
:20464C000DD102214A468DE80600366D80344B4602AA2146B047EC601DE02E6AB868716876
:20466C00884719482B6A80F800A01E68174880345946224607F11803B04709E0C81B0020BB
:20468C00803422461148346807F118035946A047B860686AA86298F83F0498F86D64F870D4
:2046AC0007B03E71BDE8F08FC01E0020F311010008020020102C0020DC170020E41F0020A5
:2046CC006C2100200C200020D2200020382A0020B0B50446BC480768ADF1480D002F00F00D
:2046EC00AC812078401E122800F2A781DFE810F06E0157013D01280120010901F600E80039
:20470C00C800B700920067005D004C00A501340026001C0013007B6C002B00F08E8100200C
:20472C00A21C0146984788E1F86B002800F08581684621460CF040FCF96B7CE1386C0028C5
:20474C0000F07B816846002101220DF01DFB60788DF80000396C6EE1F86A002800F06D81A1
:20476C00684600210E220DF00FFBA11C684613F02BFBA57BA1890022ADF80A1005B101228F
:20478C008DF80C20F96A57E1B86B002800F055816846002102220DF0F7FAA5788DF80150DC
:2047AC0060788DF80000B96B45E1786B002800F04481684621460CF0FFFB796B3BE1386BD8
:2047CC0008B36846002114220DF0DEFAA5788DF80150A3680193A289ADF80820A17B8DF80D
:2047EC000A1060788DF80000E57B8DF80B50237C8DF80C3094F911208DF80D2061690491C7
:20480C00396B684688476068002800F0168113F085FD12E1B86A002800F00F8168460021E3
:20482C0024220DF0B1FA6078A11C8DF800000DF1020013F0C9FA04F10C0103A813F0C4FA30
:20484C00257EE08A04F119018DF818500B22ADF816000DF119000BF0C7FCB96AEBE0786AB6
:20486C00002800F0EA806846002102220DF08CFAA5788DF8015060788DF80000796ADAE047
:20488C00386A002800F0D9806846002112220DF07BFA658862796078ADF8025023798DF8CC
:2048AC000520E11D8DF80000A5798DF804300B220DF107008DF806500BF096FC396ABAE096
:2048CC00F869002800F0B9806846002101220DF05BFA60788DF80000F969ACE0B86910B1A9
:2048EC0020460FF0DDFDA07820B9A069002800F0A48003E0A069002800F09F8011F0DAFC3D
:20490C009BE07869002800F098806846002113220DF03AFA6D46A01C0168406829600B2294
:20492C00686004F10A0102A80BF05EFC796982E03869002800F0818020460AF0AFFD7CE03E
:20494C00F868002879D0684600210E220DF01CFA6078A11C8DF800000DF1020013F034FA1D
:20496C00A089ADF80C00F96865E0B868002864D06846002114220DF007FAA01C01686D4654
:20498C00296040686860A07A0B2204F10B018DF808000DF109000BF027FCB9684BE07868EC
:2049AC0000284AD06846002110220DF0EDF960786588211D8DF800000B22ADF8025001A870
:2049CC000BF012FC796836E0981E00203868A0B36846002119220DF0D7F9A01C01686D4653
:2049EC00296040686860A07A410824BF01218DF80810810824BF01218DF80910C10824BFD5
:204A0C0001218DF80A10010924BF01218DF80B10C10924BF01218DF80C1030F07F001CBF30
:204A2C0001208DF80D000B220DF10E0004F10B010BF0DAFB39686846884712B0B0BD7047A9
:204A4C002DE9F04F09AFADF13C0D08900A92388809911E46ADF81800101C08BF002000F0A4
:204A6C007581017800274FF0010B401C4FF0FF39B846DA460A9061E1252940F056810178AE
:204A8C00401C0A902D2918BFADF8068004D10178ADF806B0401C0A9030291CBF42464346D8
:204AAC0004D10178401C5A465B460A902A29CDF800804D4617D1049330680A9BCDF8089021
:204ACC00C01C20F00300001D306050F8044C1978002C009403F101000A9018D5ADF806A07E
:204AEC006442009413E044460AE0600000EBC4004018A0F130040A9801780094401C0A9038
:204B0C00302901DB3A29F0DBCDF8089004932E2929D10178401C2A290A9011D13168CDF8DF
:204B2C000880C91C21F00301091D316051F8045C002D48BF454601782B46401C0A9011E0F7
:204B4C00454643460AE0680000EBC5004018A0F130050A9801782B46401C0A90302901DB5E
:204B6C003A29F0DB02930AB1224604926C2904D04C2918BFADF8048004D10178ADF804A038
:204B8C00401C0A900BA8CDF80C800FAB07906429059300F0828069297FD0BDF818C075299B
:204BAC006DD0782969D06F2965D070294ED063293ED0732922D00A98401E0A9009980128C2
:204BCC001AD966490C68B5F1FF3F03D0A84288BF6D1C05D86FF00041814294BF0D1C099DE0
:204BEC00029508A80AA932466B46A04709993F18091A0398099165E0454617E03068C01C13
:204C0C0020F00300001D306050F8040CBCF1010F014608B94FA00146079113F045FB039007
:204C2C00B5F1FF3F4FD0A8424DD9039528464AE03068C01C20F00300001D306010F8040CD9
:204C4C008DF82C005D46039558463CE0082035680490E81C20F00300001D306050F8041C1D
:204C6C00082210230FA80DF087FD401E079040210170079823E0082302E0102300E00A23DD
:204C8C003068C01C20F00300001D306050F8041CAA42BCBF2A1C04920DE03068C01C20F0B8
:204CAC000300001D306050F8041CAA42BCBF2A1C04926FF009030FA80DF05EFD07900599DE
:204CCC00081A0390009C241ABDF8065000945DB906E008A8202109AA12F0B4F87F1C009C15
:204CEC00641E0094F5D50398401EB0F1FF3F03900FD1BDF8060001281CD10098401E009026
:204D0C0018D408A8202109AA12F09CF800987F1CF4E70798017809AA08A812F093F80798AC
:204D2C00401C079003987F1CDEE708A809AA12F089F87F1C0A980178401C0A9000297FF44B
:204D4C009BAE089808B14146017038460FB0BDE8F08FC046286E756C6C2900C0380D000035
:204D6C002DE9F04FB04ABA4C02F12001096804F11000243201601268011D0A60AB49ADF1FD
:204D8C003C0D0546082212F02FFB28B9A8490A682846026049684160A648A749C0F88C1085
:204DAC00A74EC0F898600025C0F89450A34FC0F89070A44BC0F89C30A34AC0F8A020A84611
:204DCC00C0F8A480D0F88C10C0F8A88000F18C0609B1404688479D4D0C22CDF82080414611
:204DEC0005F128000CF0D0FF4FF4FA7941F27077C5F82C90688D2F6340F019006885FEF7C3
:204E0C003FFBA86009F0B2FB05F18400E060AF68904C41466662F520A76013F0C5FB8E4FE6
:204E2C000D200E26787007F10C01BE7007F118000AF022FEB860787813F078F900280CBF51
:204E4C0008264646B87813F071F908B946F010068249B86813F00CFC8149C82207F124001C
:204E6C0010F040F87F48AB467860102E10D1606A70B1C26862B1FF208DF810004FF6FF77A8
:204E8C00ADF8127004AEADF8147096E803009047754D05F1140005F108010AF0EDFD686035
:204EAC00404613F021FC4FF0020A47460E90AE1E06F8028F384686F801A013F07EFC01460E
:204ECC000E9A6868C9B210F0B3FF7F1C022FEFDB664905F120004A4610F004F8644D05F193
:204EEC001000291D0AF0C8FD2860606A002846D00769DFF880916FB1009449460CA80A6840
:204F0C00898802600CAE818096E8030001234246B847606A002832D0C26852B149460CA8C7
:204F2C000B68898803600CAF818097E803009047606A20B3076917B306208DF80800ADF83A
:204F4C000A000AAEADF80C8002AD009695E80300534642464546ADF82850B847666ABDF840
:204F6C0028007769A08057B1BDF8280002AE401CADF8280096E8030052460AABB847E8206A
:204F8C00012113F011FBE720092113F00DFB606A062628B307691FB38DF818600425ADF8BA
:204FAC001A5008A8ADF81C8006AB009093E8030042462B46B84718B9089D1935A8460FE032
:204FCC008DF818604046676AADF81A5006AE09907C69ADF81C8096E803002A4609ABA04763
:204FEC00CDF8208040460CF009FFE0200C2113F0DBFA4F20032113F0D7FA5720052113F0AA
:20500C00D3FA4E20042113F0CFFA5920032113F0CBFA12F003FD0BF10200012113F012F8C4
:20502C0000F02AF8FCE7C046A8FF0100CC0C0000F01200503C0C002065560100915A010087
:20504C0091020100955D0100C1E00000B41800208C1E0020D8160020781D0020E55E01005F
:20506C00BD7D01003D7F0100081E0020DD07010070200020F40C00002DE9F041BF4CC04DF2
:20508C00DFF800836088ADF1400D41087ED308A804A90EF04FFB012869D1404624300068F3
:2050AC00D8B10769CFB1062002268DF808000022ADF80A600BABADF80C2002AE009396E817
:2050CC0003000C23B84740B9BDF82C0060850C9FE7620D98206313F001F8022605AFBDF82B
:2050EC001210BDF8100084F824603A46A1830FF0B1F830460DF0D2FFBDF820009DF81C6047
:20510C00A5F8400009A985F8426005F1500013F04FFBBDF8220005F146063946A5F84E00BF
:20512C00304613F045FBBDF81200B5F84010A5F84400502013F031FAB5F84E10532013F0E6
:20514C002CFA4A20314613F0CEFB95F84210E12013F02AFAB5F844104B2013F01EFA05F1EC
:20516C000A00102112F06EFF0120207008E013F003FDE06001200DF091FF002013F09EF836
:20518C00A01C012112F048FF20464088C10807D301F0D2FBA01C042112F03EFF20464088FF
:2051AC0080080DD3E06A11F075FB11F007FF00B2A082E08201F0C0FBA01C022112F02CFFCB
:2051CC006F89780805D305F10A00012112F024FF6F89B80805D305F10A00022112F01CFF5C
:2051EC006F89780915D342200EA910F0D5F995F85A0005F10A06032818BF042802D1286ED7
:20520C0011F030FB10F080FF3046102112F004FF6F89B80907D30DF07BF805F10A002021E7
:20522C0012F0FAFE6F89F80907D30AF031F805F10A00402112F0F0FE6F89780A13D395F834
:20524C005D0013F03BF895F85D0005F10A06032803D15220012113F099F930464FF48071ED
:20526C0012F0DAFE6F8938094ED395F85C0005F10A0600283CD0401E34D0401E02D0401EDB
:20528C002ED03CE095F85810472013F08DF995F85910542013F088F9B5F844104B2013F0A6
:2052AC007CF9B5F84010502013F077F909278DF8117001238DF812308DF8133095F84200D5
:2052CC008DF8100004A813F093FA95F85A00012815D1E87898B13046202112F0B3FE0EE0FA
:2052EC0003200AE05220012113F050F9022004E05220012113F04AF901200EF06BFB3046DA
:20530C00082112F089FE6F89454617B1A86813F023FCE9886878490819D3A97802094FF059
:20532C00000601D301290BD040090BD3012909D0A01C012112F086FEA86813F00DFC01E0F7
:20534C000FF010FF6E70A81D012112F065FE608880B90D4C60684FF0FF3113F015FC48B14B
:20536C0060780EF07FFC041C04D0FFF7B1F9204612F0D4FF10B0BDE8F081C046B418002039
:20538C00301A0020D81600208C1E0020BA482DE9F84F0025B94CB749056094F8E20000283B
:2053AC0000F06381012800F02F81B54E02283CD0032840F05A8151F8250CD4F8B81000299E
:2053CC00A0F5C060C4F8D400B8BF49420028B8BF4042814226DA4FF08057D7F8A40145685F
:2053EC00B4F8BC0030214FF47F42082300903046A847D7F8A4014568B4F8C00004214FF4CF
:20540C00F802122300903046A847D7F8A401B4F8D070456820214FF440620A2330460097EF
:20542C00A847012584F8D8501AE151F8258C13F007F92F4600B901273946924F3868002831
:20544C00FCD0B146012609F10409D9F82CA03E6009B113F0FBF8CAF30720C4F8BC0013F005
:20546C00EFF8AA4600B9B2463B68002BFCD0D9F800B0BAF1000F3E6001D013F0E7F8CBF3B4
:20548C008440C4F8C00013F0DBF8AA4600B9B2463B68002BFCD0D9F81C90BAF1000F3E60DA
:2054AC0001D013F0D3F8C9F38120C4F8D000B8F5C061C4F8B81000F09C8094F8D80068B975
:2054CC00C4F8D410D4F8C000C4F8C800D4F8BC70C4F8C470D4F8D030C4F8CC30D4F8D40004
:2054EC00D4F8BC30002854BF02226FF0010204F1C8010F6800EB40008018421000EB9272EE
:20550C0007EBA2000860D4F8C810C4F8C43000291CDD1E293CDDD4F8CC0030B93429B4BF5C
:20552C0015391E21C4F8C81025E02A29BABFD4F8C8000B381E20C4F8C800D4F8C4003F28DD
:20554C00B4BF401C3F20C4F8C4001FE0D4F8CC00032812D011F10B0FC6BFD4F8C8000B307D
:20556C00301CC4F8C800D4F8C4000028C4BF401E051CC4F8C450032508E011F1150FC6BF0A
:20558C00D4F8C8001530301CC4F8C800C4F8CC504FF08057D7F8A401B4F8C43030214FF4C0
:2055AC007F424568364800930823A847D7F8A40104214FF400321123456831480096A84759
:2055CC00B4F8C860D7F8A40104214FF4F802122345682B480096A847D7F8A40120214FF443
:2055EC0040620A23B4F8CC60456825480096A84701E084F8D85040F2FF50404502D8801C58
:20560C0040452DD208202EE051F8251C1E4F4BF2F5204843060A3868C0F3814001280AD1C8
:20562C0011F0CCFC10F0F2F913F016F83111C010484306EBE03694F8E50030B913480068D8
:20564C0020F07F403618760801E084F8E5501048310C0660012741600E4D8760287808B9AA
:20566C000B2000E0052084F8E40003F0A3FEBDE8F88FC0462D400C402C500C40C41500204E
:20568C0000A00C4000800C40B43F0050102009403C600C40B50B00002DE9F04F0546ADF1A4
:2056AC001C0D13F03AF9AA4FAA4C012D069000F0EA8012F0F5FB002800F0E1809D480078AA
:2056CC00002840F0DC809C480078002840F0D7809A480078002840F0D2809948007800287A
:2056EC0040F0CD8097480078002840F0C88096480078002840F0C38094480078002840F08D
:20570C00BE80384621460F78006A002F00F13C0040F0B580904C0068257880476168DFF860
:20572C0030B2DFF83C82AF00401AB0FBF7F6E068A1680027BA46524681464E4572EB0A0272
:20574C0001DA814206D83A4650468E42904145DA084600E03A460146891B4FEAE573BA41C6
:20576C00084611462A4612F0EFFB4FF47A72002306460F460CF0C8FF0BF036FD534600F6A9
:20578C00FC024FF00001B61A9F417042B94122DA72480268394630460CF0B6FF0F460646FC
:2057AC004FF000017042B94115DA12F025FA0546206913F0E8F810B1206912F047F8284631
:2057CC0012F014FC2069314613F0C2F9206913F0BBF9002000E00120444620704446207850
:2057EC0000284CD1002738460CF03EFE00B10127C146384600284FF000073ED1554800788B
:20580C0000283AD1DBF82000564C436CA068022102AA98479DF8080078B3534DDBF82020D4
:20582C00A06895F900103E4611F1020F18BF01264FF0010836B1926B95F900109047DBF8AD
:20584C002020A068494E96F9001011F1020F03D0926B96F9001090476FF0010030703D4BDD
:20586C002870384683F8008012F010FEDBF82000C169A06888478BF8017089F80070069884
:20588C001AF052F853E001200CF0EEFD06981AF04BF82078012839D1012012F0F7FD11F09F
:2058AC006DFD60BB13F039F8002502268146DFF8C080386AA8F80250416E267002A88847A6
:2058CC000295386A8DF80C602D4A2A4BD0F850C0294630468DE803001068414602AAE0479F
:2058EC00002801D512F0E1FF2349464691F90000FE60401C087048461AF016F806E02078E4
:20590C00012803D10020207012F0D6FA11F036FD68B92078194D022803D1287808B112F050
:20592C00C4FF2878012802D020780228FCD007B0BDE8F08F452C0020472C0020492C0020DB
:20594C00462C0020C6200020C7200020C8200020C81B0020D2200020E41F0020240D00002B
:20596C00482C0020C01E0020C4200020C5200020DC170020A5260100CE200020D120002082
:20598C00C81E00202DE9F04FA54E814606F120000068416EADF12C0D03A88847AD4CE7681F
:2059AC0017B912F082FFE7684FF00008388979689A4BCDF81C80C50009781878103589095D
:2059CC0006D340F6485191FBF0F16D1805F5AF754543387D35280CBF47464FF4FA570DF17F
:2059EC002601E8200FF0D8FD9DF82600032808BF44F62067E068007D07EB8505352803D1B8
:205A0C00D4F8E403804745430220B3468DF82000864FDBF82000069507F10803826E1868E2
:205A2C0006A9904701207F497F4D087029788BF80080012901D0FFF72FFEE0680589466861
:205A4C0011F074FE3088000935D394F88073E1688FB34B6A4F6E986AB0F1FF3F25D027B3D2
:205A6C00421C9A628862030E07F80139E06890F82A0007F80109E06890F8290007F8010987
:205A8C00E06890F828003870E268106A00950190801B281A80B20290916A506A92F88C20E4
:205AAC003346153008F09CFC00E0DB20D4F8C473002840F0A680294630460BF061FC64206F
:205ACC0009A90FF069FD5A4894F88073007837B994F82F0409F0C0F9012805D08DE009F045
:205AEC00BBF9012840F08980DFF848A1A81C87B20DF125010AF170000780E9200FF04CFD60
:205B0C009DF82500012805D13D46C5F3022040F0180005E02D1DADB2C5F3022040F008007B
:205B2C0006F8010D06F8015D55469DF82400A5F862800028EE670CBF3F484048CDF80C8076
:205B4C0002238DF8103005F12806A6F80280C5F8B80005F16007B86195F83500A5F84680FB
:205B6C0020F00F0040F0030085F8350012F0D5FEDFF8CCA00A90B9F1010F1DD0B9F1040FFF
:205B8C001AD0B9F1000F14D0B9F1050F0ED0B9F1030F08D194F83F0410F0F2F9C07B022822
:205BAC0018BF3E1C0AE005F1600607E0DFF894A004E005F1440601E005F12806DBF8200054
:205BCC001A4B046D02278DE880019868314603AA5346A0471C49002808800BD41B4991F93E
:205BEC0000006035401C08700A98CBF80C5019F09BFE0FE00A9819F097FE1A200BF010FE5B
:205C0C0008E0002F08BFE420F8D0114880F80080E420B8470BB0BDE8F08FC046E41F002072
:205C2C00C81B0020C7200020D1200020C01E00206F210020DC1700204E9055550E7A5555C2
:205C4C00B9A30000ADDC0000F41E0020CE200020492C0020080200202DE9F04FAC4C0746BA
:205C6C000020ADF13C0DDFF8A482ADF80C0004F10C0000688946017D252900F0028170304C
:205C8C0005A903F0FFF9002818BFC0B240F03B8101A804A90CF0DEFD0FF0A8FF042814BF30
:205CAC0041F2081543F2C82504A901A80CF0D2FD98F82B2201993B684FF47A7A50465043CB
:205CCC000AFB1100C01A8542C0F2D880D8F80422521A0AFB02F1C91A8D4200F3CF808542E2
:205CEC00A34609DD002807DD95FBFAF04FF4916100B201FB003038609DF81F00002857D095
:205D0C0042F204000DF136010FF080F812F034FF0699441A42F206000DF135010FF076F886
:205D2C009DF835009DF81D10FF2804BF0A208DF83500FF2908BF0A219DF835609DF81C50B8
:205D4C007448B4FBF0F2701884B25646A81054437043A04298BF041C41F20810241805A801
:205D6C0011F057FA9DF81C103D68B0FBF1F24A43821A714392B272438B1A891A5B1B491BD9
:205D8C008C4201D9002908D56142994212D2002B10D5B4FBF6F109B203E06100B1FBF6F1AF
:205DAC0089B23A684FF4916303FB01253D6001E03D68002006460DF1120102A80CF04AFD12
:205DCC000298D8F804120024B5FBFAF280180290814203D998F82B32834202D998F8987188
:205DEC002FBB9DF81C00B6180004B04298BF361A9DF81F00002808BF9DF8200024D09DF8B0
:205E0C001C00B6FBF0F085B2BDF833000EF0DAFF9DF83120014628460FF03BF9054611F0B9
:205E2C00E5F9024608A928460EF039FF0CE0814204D8BDF81200401CADF81200BDF81200AF
:205E4C0098F89B110CF0D8FA89F8000088F8F501DBF80C00007D052811D19BF8150470B9F5
:205E6C0099F8000003A9ADF80C0042F20C0003F061FEBDF80C00A8F8F00100E06524204675
:205E8C0041E00FF0B3FE042814BF41F2081543F2C825214800784FF47A7404FB00F1386812
:205EAC00491BA1F5FA62824206D2A1F57A61B0FBF1F24A43801A386068460DF10E010CF06F
:205ECC00C9FC3868009998F82B2204FB010154430091611A8D4211DCA4F5FA648C42BCBF3B
:205EEC0000F5FA60386098F89B11B8F878010CF083FA0146002089F8001002E099F8001056
:205F0C00652088F8F5110FB0BDE8F08FA010002008020020A0860100CB1200202DE9F04F14
:205F2C0000289A461446ADF1340D00F0F38011F47C1F40F0EC8011F00F0F00F0EB800746AE
:205F4C000020069005910B904FF000090A904FF0010B09904E46CDF810B0069D08964846A0
:205F6C000790059805990BEA000021EA0B014FEA4B0B401E059100F0AB80401E70D0801E5D
:205F8C005DD0001F40F0BE8042F205000DF10E010EF03CFF9DF80E60002E00F0B3801CB19B
:205FAC00276694F86B0006900720152607F8010B022301A907F8016B42F2010007F8013BA4
:205FCC000EF024FF684603A90CF044FC06980DF0F1FA0146019A00983E46401800908242CE
:205FEC0006D8801ABDF80C300090581CADF80C00009B50084946804609041804030C19439B
:20600C0000044B4610EB080041EB09010AF0B6FA0090BDF80C309DF80C009DF800209DF890
:20602C00011006F8010B181206F8010B9DF8023006F8012B9DF803200935BF1D42E00220FE
:20604C00152607F8010B042307F8016BBAF1000F07F8013B0CBF09989AF800002D1D4EE0F1
:20606C001CB1E76594F86B00069005201526049B07F8010B0DF10F0107F8016B42F20400B3
:20608C0007F8013B0EF0C2FE02A80FF061FE06980DF090FA02999DF80F609DF80F30069ABB
:2060AC00ED1D4018000200EB6600B0FBF3F03E4602903F1D06F8012B9DF808109DF809307A
:2060CC009DF80A2006F8011B06F8013B327018E00320152607F8010BBAF1000F07F8016B79
:2060EC00034607F8013B04BF0B9807F8010B05D09AF8000007F8010B9AF801006D1D07F811
:20610C00010BADB2059800287FF42BAF61E011F00F0F01D000205DE080468A4602254FF468
:20612C00803908F1020609EA0A002AEA090A4FEA4909B0F580301AD0B0F5803014D0B0F5CD
:20614C0000300ED0B0F5802009D0B0F5002004D0B0F580102AD1072404E0062402E00524FA
:20616C0000E00424002704E00224012701E001242746B01C2146FAF7DFFD47B104F00F0440
:20618C00C0F30A0141EAC42141F4004105E004F07F0400F0FF0141EA042106F8011B0912DE
:2061AC00471906F8011B3618B81C85B2BAF1000FB9D1022DD8BF00250BDDA81E4FF6FE7769
:2061CC0008F8010BE819C0F3022040F0A00088F8000028460DB0BDE8F08F70472DE9F04F26
:2061EC00044609AF9A4691468846ADF1140D019412F093FB98490D680290A54208BF4D68DD
:20620C00974C6FF0010B35B105F1800012F0CEF8002840F00F8111F033F8061C00F0158144
:20622C0004F1B40012F06FFBC6F80C80B4F98C0099F80430401C86F83E306FF31F30A4F860
:20624C008C00C6F808A0B4F88C00019AB0878348326197E80C004FF0000B2021DC4606F1A9
:20626C0018071940104087E8030006F1200383E80018C6F834B062463263D9F80800B06370
:20628C0086F83F20D9F80070009207B1776398F80C0000F00F00022804BFD8F808003063BD
:2062AC00082740464368002B18BF002F40F0BE8000886FF30900B0F5305F18BF022006D1DC
:2062CC0096F83F0040F0100086F83F00082006F1180191E8800106F1180342EA080240EA44
:2062EC00070183E80600D4F8F8000199814207D194F80401410824BF00F0FE0084F80401F4
:20630C00002D70D0039504F1700101980D68884610F0DEFBB1465F465FEA000A0FD1D8F8B2
:20632C0000202AB1D4F8801030460BF0F9FA18B9BAF1000F03D103E001275D4630E05546DE
:20634C0045B12A68304629460BF0EAFA38BB002A1546F6D1039831460CF06AFF051C02D03C
:20636C00A9451AD1E5B9D9F80C10D8F80450087B00F00F00022813D1087BC01140080FD27C
:20638C00002D4AD1D4F8800050B1D4F8801030463A460BF0C5FA18B93FE0082700E0022728
:2063AC00BB46BBF1010F04D104F17000494611F0BAF8BBF1020F0BD12F682A6804F1700071
:2063CC001FB9494611F09EF802E0494611F089F8BBF1080F04D196F83E10284611F073FA70
:2063EC003BF0080004D104F17000314611F08AF81BF1030F11D096F83F00B6F93CB000992A
:20640C0040F0800086F83F00019F87F8A410206F86421AD10CF03EFF17E0B4F98C0000F68F
:20642C00FF706FF31F30A4F88C0003E07F1E1846FFB237E794F8040140F0040084F8040115
:20644C0001986FF0020BC4F8F800029819F06CFA584605B0BDE8F08F60220020FFEFFF9FC9
:20646C00882100202DE9F04142F20400ADF1280D0DF123010EF0CAFC42F205000DF12201B5
:20648C000EF0C4FC42F2010069460EF0BFFC894C89489DF82310C4F8A80164204143C4F8FE
:2064AC00A0118649C4F8C4119DF822104843C4F8BC018348834EC4F8E001B07888B342F224
:2064CC0003000DF106010EF0A1FC10F08FFE05460DF1060029460DF035FD2D1A9DF8220095
:2064EC0084F89B5170B1009860B104F5DC700EF020FC04F5BA700AF023FB012084F8940192
:20650C0084F8980142F202000DF106010EF07EFC0DF1060011F03AF804F5CE700EF009FC36
:20652C0011E042F202000DF106010EF06FFC0DF1060011F02BF804F5CE700EF0FAFB04F56F
:20654C00BA700DF0A7FA96F83F040FF019FDC07B022804BF012084F8F40194F8F80100281A
:20656C0040F0A48004F12800002138220BF00CFC0026A681E08900EB800080B280460AF00D
:20658C00D5FC04F128050127206110B912F0BFF92069424631460BF0F7FB4B484B4BE063EF
:2065AC0005F1080063630EF0C4FB42F21B0001A90EF02CFCBDF8040001A9A4F84C0042F2B0
:2065CC001C000EF023FCBDF8040001A9A4F84E0042F21D000EF01AFCBDF8040009A92083B6
:2065EC005D200EF0D9FF9DF8240000280CBF84F85C6084F85C70B4F84C0040B100EB4010EC
:20660C0080B20AF093FC606508B912F080F9B4F84E0048B1410001EB800188B20AF086FC5B
:20662C00A06508B912F073F9208B38B1C00080B20AF07CFC606108B912F069F924490DF1D1
:20664C001A00082211F054FB354609E060690DF11A01082200EBC50011F04AFB6D1CADB24C
:20666C00208BA842F2DCB4F84C50668355B1606D4FF6FF720146A0F81F206D1E8E7701F151
:20668C002100F7D1B4F84E504DB1A06D4FF6FF71024681806D1ED67002F10600F8D1201DE2
:2066AC00314606220BF070FB84F8F8710AB0BDE8F081C046A0100020B54901000DC9000069
:2066CC006388010008020020C5BA0000002A75156C0100002DE9F0410D46924CDFF850C297
:2066EC00DFF84882A188D128074613DCDFF844E2D12800F0A480713800F0E680401E00F038
:20670C00DF80401E00F0D680113810D04C3800F0B28007E0D2387BD0401E61D0401E34D06E
:20672C00401E2BD0384611F02FFEFF2802D1F420BDE8F0817C4C04EBC004217909B9E088E5
:20674C0060B1E088884208BFFB2000F0E9802A78914200F399809042C0F2968012F0DDF8BD
